{
  "_format": "hh-sol-artifact-1",
  "contractName": "HdlLogo",
  "sourceName": "contracts/HdlLogo.sol",
  "abi": [
    {
      "inputs": [],
      "stateMutability": "nonpayable",
      "type": "constructor"
    },
    {
      "anonymous": false,
      "inputs": [
        {
          "indexed": true,
          "internalType": "address",
          "name": "owner",
          "type": "address"
        },
        {
          "indexed": true,
          "internalType": "address",
          "name": "approved",
          "type": "address"
        },
        {
          "indexed": true,
          "internalType": "uint256",
          "name": "tokenId",
          "type": "uint256"
        }
      ],
      "name": "Approval",
      "type": "event"
    },
    {
      "anonymous": false,
      "inputs": [
        {
          "indexed": true,
          "internalType": "address",
          "name": "owner",
          "type": "address"
        },
        {
          "indexed": true,
          "internalType": "address",
          "name": "operator",
          "type": "address"
        },
        {
          "indexed": false,
          "internalType": "bool",
          "name": "approved",
          "type": "bool"
        }
      ],
      "name": "ApprovalForAll",
      "type": "event"
    },
    {
      "anonymous": false,
      "inputs": [
        {
          "indexed": true,
          "internalType": "address",
          "name": "previousOwner",
          "type": "address"
        },
        {
          "indexed": true,
          "internalType": "address",
          "name": "newOwner",
          "type": "address"
        }
      ],
      "name": "OwnershipTransferred",
      "type": "event"
    },
    {
      "anonymous": false,
      "inputs": [
        {
          "indexed": true,
          "internalType": "address",
          "name": "from",
          "type": "address"
        },
        {
          "indexed": true,
          "internalType": "address",
          "name": "to",
          "type": "address"
        },
        {
          "indexed": true,
          "internalType": "uint256",
          "name": "tokenId",
          "type": "uint256"
        }
      ],
      "name": "Transfer",
      "type": "event"
    },
    {
      "inputs": [
        {
          "internalType": "address",
          "name": "to",
          "type": "address"
        },
        {
          "internalType": "uint256",
          "name": "tokenId",
          "type": "uint256"
        }
      ],
      "name": "approve",
      "outputs": [],
      "stateMutability": "nonpayable",
      "type": "function"
    },
    {
      "inputs": [
        {
          "internalType": "address",
          "name": "owner",
          "type": "address"
        }
      ],
      "name": "balanceOf",
      "outputs": [
        {
          "internalType": "uint256",
          "name": "",
          "type": "uint256"
        }
      ],
      "stateMutability": "view",
      "type": "function"
    },
    {
      "inputs": [
        {
          "internalType": "uint256",
          "name": "tokenId",
          "type": "uint256"
        }
      ],
      "name": "burn",
      "outputs": [],
      "stateMutability": "nonpayable",
      "type": "function"
    },
    {
      "inputs": [
        {
          "internalType": "address",
          "name": "_address",
          "type": "address"
        }
      ],
      "name": "checkHasMinted",
      "outputs": [
        {
          "internalType": "bool",
          "name": "",
          "type": "bool"
        }
      ],
      "stateMutability": "view",
      "type": "function"
    },
    {
      "inputs": [
        {
          "internalType": "uint256",
          "name": "tokenId",
          "type": "uint256"
        }
      ],
      "name": "getApproved",
      "outputs": [
        {
          "internalType": "address",
          "name": "",
          "type": "address"
        }
      ],
      "stateMutability": "view",
      "type": "function"
    },
    {
      "inputs": [
        {
          "internalType": "address",
          "name": "owner",
          "type": "address"
        },
        {
          "internalType": "address",
          "name": "operator",
          "type": "address"
        }
      ],
      "name": "isApprovedForAll",
      "outputs": [
        {
          "internalType": "bool",
          "name": "",
          "type": "bool"
        }
      ],
      "stateMutability": "view",
      "type": "function"
    },
    {
      "inputs": [],
      "name": "isMintActive",
      "outputs": [
        {
          "internalType": "bool",
          "name": "",
          "type": "bool"
        }
      ],
      "stateMutability": "view",
      "type": "function"
    },
    {
      "inputs": [],
      "name": "maxSupply",
      "outputs": [
        {
          "internalType": "uint256",
          "name": "",
          "type": "uint256"
        }
      ],
      "stateMutability": "view",
      "type": "function"
    },
    {
      "inputs": [],
      "name": "name",
      "outputs": [
        {
          "internalType": "string",
          "name": "",
          "type": "string"
        }
      ],
      "stateMutability": "view",
      "type": "function"
    },
    {
      "inputs": [],
      "name": "owner",
      "outputs": [
        {
          "internalType": "address",
          "name": "",
          "type": "address"
        }
      ],
      "stateMutability": "view",
      "type": "function"
    },
    {
      "inputs": [
        {
          "internalType": "uint256",
          "name": "tokenId",
          "type": "uint256"
        }
      ],
      "name": "ownerOf",
      "outputs": [
        {
          "internalType": "address",
          "name": "",
          "type": "address"
        }
      ],
      "stateMutability": "view",
      "type": "function"
    },
    {
      "inputs": [],
      "name": "renounceOwnership",
      "outputs": [],
      "stateMutability": "nonpayable",
      "type": "function"
    },
    {
      "inputs": [],
      "name": "safeMint",
      "outputs": [],
      "stateMutability": "nonpayable",
      "type": "function"
    },
    {
      "inputs": [
        {
          "internalType": "address",
          "name": "from",
          "type": "address"
        },
        {
          "internalType": "address",
          "name": "to",
          "type": "address"
        },
        {
          "internalType": "uint256",
          "name": "tokenId",
          "type": "uint256"
        }
      ],
      "name": "safeTransferFrom",
      "outputs": [],
      "stateMutability": "nonpayable",
      "type": "function"
    },
    {
      "inputs": [
        {
          "internalType": "address",
          "name": "from",
          "type": "address"
        },
        {
          "internalType": "address",
          "name": "to",
          "type": "address"
        },
        {
          "internalType": "uint256",
          "name": "tokenId",
          "type": "uint256"
        },
        {
          "internalType": "bytes",
          "name": "data",
          "type": "bytes"
        }
      ],
      "name": "safeTransferFrom",
      "outputs": [],
      "stateMutability": "nonpayable",
      "type": "function"
    },
    {
      "inputs": [
        {
          "internalType": "address",
          "name": "operator",
          "type": "address"
        },
        {
          "internalType": "bool",
          "name": "approved",
          "type": "bool"
        }
      ],
      "name": "setApprovalForAll",
      "outputs": [],
      "stateMutability": "nonpayable",
      "type": "function"
    },
    {
      "inputs": [
        {
          "internalType": "string",
          "name": "newBaseURI",
          "type": "string"
        }
      ],
      "name": "setBaseURI",
      "outputs": [],
      "stateMutability": "nonpayable",
      "type": "function"
    },
    {
      "inputs": [
        {
          "internalType": "bytes4",
          "name": "interfaceId",
          "type": "bytes4"
        }
      ],
      "name": "supportsInterface",
      "outputs": [
        {
          "internalType": "bool",
          "name": "",
          "type": "bool"
        }
      ],
      "stateMutability": "view",
      "type": "function"
    },
    {
      "inputs": [],
      "name": "symbol",
      "outputs": [
        {
          "internalType": "string",
          "name": "",
          "type": "string"
        }
      ],
      "stateMutability": "view",
      "type": "function"
    },
    {
      "inputs": [],
      "name": "toggleMint",
      "outputs": [],
      "stateMutability": "nonpayable",
      "type": "function"
    },
    {
      "inputs": [
        {
          "internalType": "uint256",
          "name": "tokenId",
          "type": "uint256"
        }
      ],
      "name": "tokenURI",
      "outputs": [
        {
          "internalType": "string",
          "name": "",
          "type": "string"
        }
      ],
      "stateMutability": "view",
      "type": "function"
    },
    {
      "inputs": [],
      "name": "totalSupply",
      "outputs": [
        {
          "internalType": "uint256",
          "name": "",
          "type": "uint256"
        }
      ],
      "stateMutability": "view",
      "type": "function"
    },
    {
      "inputs": [
        {
          "internalType": "address",
          "name": "from",
          "type": "address"
        },
        {
          "internalType": "address",
          "name": "to",
          "type": "address"
        },
        {
          "internalType": "uint256",
          "name": "tokenId",
          "type": "uint256"
        }
      ],
      "name": "transferFrom",
      "outputs": [],
      "stateMutability": "nonpayable",
      "type": "function"
    },
    {
      "inputs": [
        {
          "internalType": "address",
          "name": "newOwner",
          "type": "address"
        }
      ],
      "name": "transferOwnership",
      "outputs": [],
      "stateMutability": "nonpayable",
      "type": "function"
    }
  ],
  "bytecode": "0x60806040526113886008556000600960006101000a81548160ff021916908315150217905550604051806080016040528060438152602001620033e260439139600b908051906020019062000056929190620001f9565b503480156200006457600080fd5b506040518060400160405280600781526020017f48646c4c6f676f000000000000000000000000000000000000000000000000008152506040518060400160405280600381526020017f48444c00000000000000000000000000000000000000000000000000000000008152508160009080519060200190620000e9929190620001f9565b50806001908051906020019062000102929190620001f9565b50505062000125620001196200012b60201b60201c565b6200013360201b60201c565b6200030e565b600033905090565b6000600660009054906101000a900473ffffffffffffffffffffffffffffffffffffffff16905081600660006101000a81548173ffffffffffffffffffffffffffffffffffffffff021916908373ffffffffffffffffffffffffffffffffffffffff1602179055508173ffffffffffffffffffffffffffffffffffffffff168173ffffffffffffffffffffffffffffffffffffffff167f8be0079c531659141344cd1fd0a4f28419497f9722a3daafe3b4186f6b6457e060405160405180910390a35050565b8280546200020790620002d8565b90600052602060002090601f0160209004810192826200022b576000855562000277565b82601f106200024657805160ff191683800117855562000277565b8280016001018555821562000277579182015b828111156200027657825182559160200191906001019062000259565b5b5090506200028691906200028a565b5090565b5b80821115620002a55760008160009055506001016200028b565b5090565b7f4e487b7100000000000000000000000000000000000000000000000000000000600052602260045260246000fd5b60006002820490506001821680620002f157607f821691505b60208210811415620003085762000307620002a9565b5b50919050565b6130c4806200031e6000396000f3fe608060405234801561001057600080fd5b50600436106101585760003560e01c806370a08231116100c3578063c87b56dd1161007c578063c87b56dd1461038b578063d3dd5fe0146103bb578063d5abeb01146103c5578063d8f27590146103e3578063e985e9c514610413578063f2fde38b1461044357610158565b806370a08231146102dd578063715018a61461030d5780638da5cb5b1461031757806395d89b4114610335578063a22cb46514610353578063b88d4fde1461036f57610158565b806342842e0e1161011557806342842e0e1461023157806342966c681461024d57806355f804b3146102695780635b92ac0d146102855780636352211e146102a35780636871ee40146102d357610158565b806301ffc9a71461015d57806306fdde031461018d578063081812fc146101ab578063095ea7b3146101db57806318160ddd146101f757806323b872dd14610215575b600080fd5b61017760048036038101906101729190611ef7565b61045f565b6040516101849190611f3f565b60405180910390f35b610195610541565b6040516101a29190611ff3565b60405180910390f35b6101c560048036038101906101c0919061204b565b6105d3565b6040516101d291906120b9565b60405180910390f35b6101f560048036038101906101f09190612100565b610619565b005b6101ff610731565b60405161020c919061214f565b60405180910390f35b61022f600480360381019061022a919061216a565b610742565b005b61024b6004803603810190610246919061216a565b6107a2565b005b6102676004803603810190610262919061204b565b6107c2565b005b610283600480360381019061027e91906122f2565b61081e565b005b61028d610840565b60405161029a9190611f3f565b60405180910390f35b6102bd60048036038101906102b8919061204b565b610853565b6040516102ca91906120b9565b60405180910390f35b6102db610905565b005b6102f760048036038101906102f2919061233b565b610aa2565b604051610304919061214f565b60405180910390f35b610315610b5a565b005b61031f610b6e565b60405161032c91906120b9565b60405180910390f35b61033d610b98565b60405161034a9190611ff3565b60405180910390f35b61036d60048036038101906103689190612394565b610c2a565b005b61038960048036038101906103849190612475565b610c40565b005b6103a560048036038101906103a0919061204b565b610ca2565b6040516103b29190611ff3565b60405180910390f35b6103c3610d0a565b005b6103cd610d3e565b6040516103da919061214f565b60405180910390f35b6103fd60048036038101906103f8919061233b565b610d44565b60405161040a9190611f3f565b60405180910390f35b61042d600480360381019061042891906124f8565b610d9a565b60405161043a9190611f3f565b60405180910390f35b61045d6004803603810190610458919061233b565b610e2e565b005b60007f80ac58cd000000000000000000000000000000000000000000000000000000007bffffffffffffffffffffffffffffffffffffffffffffffffffffffff1916827bffffffffffffffffffffffffffffffffffffffffffffffffffffffff1916148061052a57507f5b5e139f000000000000000000000000000000000000000000000000000000007bffffffffffffffffffffffffffffffffffffffffffffffffffffffff1916827bffffffffffffffffffffffffffffffffffffffffffffffffffffffff1916145b8061053a575061053982610eb2565b5b9050919050565b60606000805461055090612567565b80601f016020809104026020016040519081016040528092919081815260200182805461057c90612567565b80156105c95780601f1061059e576101008083540402835291602001916105c9565b820191906000526020600020905b8154815290600101906020018083116105ac57829003601f168201915b5050505050905090565b60006105de82610f1c565b6004600083815260200190815260200160002060009054906101000a900473ffffffffffffffffffffffffffffffffffffffff169050919050565b600061062482610853565b90508073ffffffffffffffffffffffffffffffffffffffff168373ffffffffffffffffffffffffffffffffffffffff161415610695576040517f08c379a000000000000000000000000000000000000000000000000000000000815260040161068c9061260b565b60405180910390fd5b8073ffffffffffffffffffffffffffffffffffffffff166106b4610f67565b73ffffffffffffffffffffffffffffffffffffffff1614806106e357506106e2816106dd610f67565b610d9a565b5b610722576040517f08c379a00000000000000000000000000000000000000000000000000000000081526004016107199061269d565b60405180910390fd5b61072c8383610f6f565b505050565b600061073d6007611028565b905090565b61075361074d610f67565b82611036565b610792576040517f08c379a00000000000000000000000000000000000000000000000000000000081526004016107899061272f565b60405180910390fd5b61079d8383836110cb565b505050565b6107bd83838360405180602001604052806000815250610c40565b505050565b6107d36107cd610f67565b82611036565b610812576040517f08c379a00000000000000000000000000000000000000000000000000000000081526004016108099061272f565b60405180910390fd5b61081b81611332565b50565b61082661144f565b80600b908051906020019061083c929190611de8565b5050565b600960009054906101000a900460ff1681565b6000806002600084815260200190815260200160002060009054906101000a900473ffffffffffffffffffffffffffffffffffffffff169050600073ffffffffffffffffffffffffffffffffffffffff168173ffffffffffffffffffffffffffffffffffffffff1614156108fc576040517f08c379a00000000000000000000000000000000000000000000000000000000081526004016108f39061279b565b60405180910390fd5b80915050919050565b60006109116007611028565b9050600960009054906101000a900460ff16610962576040517f08c379a000000000000000000000000000000000000000000000000000000000815260040161095990612807565b60405180910390fd5b60085481106109a6576040517f08c379a000000000000000000000000000000000000000000000000000000000815260040161099d90612873565b60405180910390fd5b600a60003373ffffffffffffffffffffffffffffffffffffffff1673ffffffffffffffffffffffffffffffffffffffff16815260200190815260200160002060009054906101000a900460ff1615610a33576040517f08c379a0000000000000000000000000000000000000000000000000000000008152600401610a2a906128df565b60405180910390fd5b610a3d60076114cd565b6001600a60003373ffffffffffffffffffffffffffffffffffffffff1673ffffffffffffffffffffffffffffffffffffffff16815260200190815260200160002060006101000a81548160ff021916908315150217905550610a9f33826114e3565b50565b60008073ffffffffffffffffffffffffffffffffffffffff168273ffffffffffffffffffffffffffffffffffffffff161415610b13576040517f08c379a0000000000000000000000000000000000000000000000000000000008152600401610b0a90612971565b60405180910390fd5b600360008373ffffffffffffffffffffffffffffffffffffffff1673ffffffffffffffffffffffffffffffffffffffff168152602001908152602001600020549050919050565b610b6261144f565b610b6c6000611501565b565b6000600660009054906101000a900473ffffffffffffffffffffffffffffffffffffffff16905090565b606060018054610ba790612567565b80601f0160208091040260200160405190810160405280929190818152602001828054610bd390612567565b8015610c205780601f10610bf557610100808354040283529160200191610c20565b820191906000526020600020905b815481529060010190602001808311610c0357829003601f168201915b5050505050905090565b610c3c610c35610f67565b83836115c7565b5050565b610c51610c4b610f67565b83611036565b610c90576040517f08c379a0000000000000000000000000000000000000000000000000000000008152600401610c879061272f565b60405180910390fd5b610c9c84848484611734565b50505050565b6060610cad82610f1c565b6000610cb7611790565b90506000815111610cd75760405180602001604052806000815250610d02565b80610ce184611822565b604051602001610cf29291906129cd565b6040516020818303038152906040525b915050919050565b610d1261144f565b600960009054906101000a900460ff1615600960006101000a81548160ff021916908315150217905550565b60085481565b6000600a60008373ffffffffffffffffffffffffffffffffffffffff1673ffffffffffffffffffffffffffffffffffffffff16815260200190815260200160002060009054906101000a900460ff169050919050565b6000600560008473ffffffffffffffffffffffffffffffffffffffff1673ffffffffffffffffffffffffffffffffffffffff16815260200190815260200160002060008373ffffffffffffffffffffffffffffffffffffffff1673ffffffffffffffffffffffffffffffffffffffff16815260200190815260200160002060009054906101000a900460ff16905092915050565b610e3661144f565b600073ffffffffffffffffffffffffffffffffffffffff168173ffffffffffffffffffffffffffffffffffffffff161415610ea6576040517f08c379a0000000000000000000000000000000000000000000000000000000008152600401610e9d90612a63565b60405180910390fd5b610eaf81611501565b50565b60007f01ffc9a7000000000000000000000000000000000000000000000000000000007bffffffffffffffffffffffffffffffffffffffffffffffffffffffff1916827bffffffffffffffffffffffffffffffffffffffffffffffffffffffff1916149050919050565b610f2581611983565b610f64576040517f08c379a0000000000000000000000000000000000000000000000000000000008152600401610f5b9061279b565b60405180910390fd5b50565b600033905090565b816004600083815260200190815260200160002060006101000a81548173ffffffffffffffffffffffffffffffffffffffff021916908373ffffffffffffffffffffffffffffffffffffffff160217905550808273ffffffffffffffffffffffffffffffffffffffff16610fe283610853565b73ffffffffffffffffffffffffffffffffffffffff167f8c5be1e5ebec7d5bd14f71427d1e84f3dd0314c0f7b2291e5b200ac8c7c3b92560405160405180910390a45050565b600081600001549050919050565b60008061104283610853565b90508073ffffffffffffffffffffffffffffffffffffffff168473ffffffffffffffffffffffffffffffffffffffff16148061108457506110838185610d9a565b5b806110c257508373ffffffffffffffffffffffffffffffffffffffff166110aa846105d3565b73ffffffffffffffffffffffffffffffffffffffff16145b91505092915050565b8273ffffffffffffffffffffffffffffffffffffffff166110eb82610853565b73ffffffffffffffffffffffffffffffffffffffff1614611141576040517f08c379a000000000000000000000000000000000000000000000000000000000815260040161113890612af5565b60405180910390fd5b600073ffffffffffffffffffffffffffffffffffffffff168273ffffffffffffffffffffffffffffffffffffffff1614156111b1576040517f08c379a00000000000000000000000000000000000000000000000000000000081526004016111a890612b87565b60405180910390fd5b6111bc8383836119ef565b6111c7600082610f6f565b6001600360008573ffffffffffffffffffffffffffffffffffffffff1673ffffffffffffffffffffffffffffffffffffffff16815260200190815260200160002060008282546112179190612bd6565b925050819055506001600360008473ffffffffffffffffffffffffffffffffffffffff1673ffffffffffffffffffffffffffffffffffffffff168152602001908152602001600020600082825461126e9190612c0a565b92505081905550816002600083815260200190815260200160002060006101000a81548173ffffffffffffffffffffffffffffffffffffffff021916908373ffffffffffffffffffffffffffffffffffffffff160217905550808273ffffffffffffffffffffffffffffffffffffffff168473ffffffffffffffffffffffffffffffffffffffff167fddf252ad1be2c89b69c2b068fc378daa952ba7f163c4a11628f55a4df523b3ef60405160405180910390a461132d8383836119f4565b505050565b600061133d82610853565b905061134b816000846119ef565b611356600083610f6f565b6001600360008373ffffffffffffffffffffffffffffffffffffffff1673ffffffffffffffffffffffffffffffffffffffff16815260200190815260200160002060008282546113a69190612bd6565b925050819055506002600083815260200190815260200160002060006101000a81549073ffffffffffffffffffffffffffffffffffffffff021916905581600073ffffffffffffffffffffffffffffffffffffffff168273ffffffffffffffffffffffffffffffffffffffff167fddf252ad1be2c89b69c2b068fc378daa952ba7f163c4a11628f55a4df523b3ef60405160405180910390a461144b816000846119f4565b5050565b611457610f67565b73ffffffffffffffffffffffffffffffffffffffff16611475610b6e565b73ffffffffffffffffffffffffffffffffffffffff16146114cb576040517f08c379a00000000000000000000000000000000000000000000000000000000081526004016114c290612cac565b60405180910390fd5b565b6001816000016000828254019250508190555050565b6114fd8282604051806020016040528060008152506119f9565b5050565b6000600660009054906101000a900473ffffffffffffffffffffffffffffffffffffffff16905081600660006101000a81548173ffffffffffffffffffffffffffffffffffffffff021916908373ffffffffffffffffffffffffffffffffffffffff1602179055508173ffffffffffffffffffffffffffffffffffffffff168173ffffffffffffffffffffffffffffffffffffffff167f8be0079c531659141344cd1fd0a4f28419497f9722a3daafe3b4186f6b6457e060405160405180910390a35050565b8173ffffffffffffffffffffffffffffffffffffffff168373ffffffffffffffffffffffffffffffffffffffff161415611636576040517f08c379a000000000000000000000000000000000000000000000000000000000815260040161162d90612d18565b60405180910390fd5b80600560008573ffffffffffffffffffffffffffffffffffffffff1673ffffffffffffffffffffffffffffffffffffffff16815260200190815260200160002060008473ffffffffffffffffffffffffffffffffffffffff1673ffffffffffffffffffffffffffffffffffffffff16815260200190815260200160002060006101000a81548160ff0219169083151502179055508173ffffffffffffffffffffffffffffffffffffffff168373ffffffffffffffffffffffffffffffffffffffff167f17307eab39ab6107e8899845ad3d59bd9653f200f220920489ca2b5937696c31836040516117279190611f3f565b60405180910390a3505050565b61173f8484846110cb565b61174b84848484611a54565b61178a576040517f08c379a000000000000000000000000000000000000000000000000000000000815260040161178190612daa565b60405180910390fd5b50505050565b6060600b805461179f90612567565b80601f01602080910402602001604051908101604052809291908181526020018280546117cb90612567565b80156118185780601f106117ed57610100808354040283529160200191611818565b820191906000526020600020905b8154815290600101906020018083116117fb57829003601f168201915b5050505050905090565b6060600082141561186a576040518060400160405280600181526020017f3000000000000000000000000000000000000000000000000000000000000000815250905061197e565b600082905060005b6000821461189c57808061188590612dca565b915050600a826118959190612e42565b9150611872565b60008167ffffffffffffffff8111156118b8576118b76121c7565b5b6040519080825280601f01601f1916602001820160405280156118ea5781602001600182028036833780820191505090505b5090505b60008514611977576001826119039190612bd6565b9150600a856119129190612e73565b603061191e9190612c0a565b60f81b81838151811061193457611933612ea4565b5b60200101907effffffffffffffffffffffffffffffffffffffffffffffffffffffffffffff1916908160001a905350600a856119709190612e42565b94506118ee565b8093505050505b919050565b60008073ffffffffffffffffffffffffffffffffffffffff166002600084815260200190815260200160002060009054906101000a900473ffffffffffffffffffffffffffffffffffffffff1673ffffffffffffffffffffffffffffffffffffffff1614159050919050565b505050565b505050565b611a038383611beb565b611a106000848484611a54565b611a4f576040517f08c379a0000000000000000000000000000000000000000000000000000000008152600401611a4690612daa565b60405180910390fd5b505050565b6000611a758473ffffffffffffffffffffffffffffffffffffffff16611dc5565b15611bde578373ffffffffffffffffffffffffffffffffffffffff1663150b7a02611a9e610f67565b8786866040518563ffffffff1660e01b8152600401611ac09493929190612f28565b602060405180830381600087803b158015611ada57600080fd5b505af1925050508015611b0b57506040513d601f19601f82011682018060405250810190611b089190612f89565b60015b611b8e573d8060008114611b3b576040519150601f19603f3d011682016040523d82523d6000602084013e611b40565b606091505b50600081511415611b86576040517f08c379a0000000000000000000000000000000000000000000000000000000008152600401611b7d90612daa565b60405180910390fd5b805181602001fd5b63150b7a0260e01b7bffffffffffffffffffffffffffffffffffffffffffffffffffffffff1916817bffffffffffffffffffffffffffffffffffffffffffffffffffffffff191614915050611be3565b600190505b949350505050565b600073ffffffffffffffffffffffffffffffffffffffff168273ffffffffffffffffffffffffffffffffffffffff161415611c5b576040517f08c379a0000000000000000000000000000000000000000000000000000000008152600401611c5290613002565b60405180910390fd5b611c6481611983565b15611ca4576040517f08c379a0000000000000000000000000000000000000000000000000000000008152600401611c9b9061306e565b60405180910390fd5b611cb0600083836119ef565b6001600360008473ffffffffffffffffffffffffffffffffffffffff1673ffffffffffffffffffffffffffffffffffffffff1681526020019081526020016000206000828254611d009190612c0a565b92505081905550816002600083815260200190815260200160002060006101000a81548173ffffffffffffffffffffffffffffffffffffffff021916908373ffffffffffffffffffffffffffffffffffffffff160217905550808273ffffffffffffffffffffffffffffffffffffffff16600073ffffffffffffffffffffffffffffffffffffffff167fddf252ad1be2c89b69c2b068fc378daa952ba7f163c4a11628f55a4df523b3ef60405160405180910390a4611dc1600083836119f4565b5050565b6000808273ffffffffffffffffffffffffffffffffffffffff163b119050919050565b828054611df490612567565b90600052602060002090601f016020900481019282611e165760008555611e5d565b82601f10611e2f57805160ff1916838001178555611e5d565b82800160010185558215611e5d579182015b82811115611e5c578251825591602001919060010190611e41565b5b509050611e6a9190611e6e565b5090565b5b80821115611e87576000816000905550600101611e6f565b5090565b6000604051905090565b600080fd5b600080fd5b60007fffffffff0000000000000000000000000000000000000000000000000000000082169050919050565b611ed481611e9f565b8114611edf57600080fd5b50565b600081359050611ef181611ecb565b92915050565b600060208284031215611f0d57611f0c611e95565b5b6000611f1b84828501611ee2565b91505092915050565b60008115159050919050565b611f3981611f24565b82525050565b6000602082019050611f546000830184611f30565b92915050565b600081519050919050565b600082825260208201905092915050565b60005b83811015611f94578082015181840152602081019050611f79565b83811115611fa3576000848401525b50505050565b6000601f19601f8301169050919050565b6000611fc582611f5a565b611fcf8185611f65565b9350611fdf818560208601611f76565b611fe881611fa9565b840191505092915050565b6000602082019050818103600083015261200d8184611fba565b905092915050565b6000819050919050565b61202881612015565b811461203357600080fd5b50565b6000813590506120458161201f565b92915050565b60006020828403121561206157612060611e95565b5b600061206f84828501612036565b91505092915050565b600073ffffffffffffffffffffffffffffffffffffffff82169050919050565b60006120a382612078565b9050919050565b6120b381612098565b82525050565b60006020820190506120ce60008301846120aa565b92915050565b6120dd81612098565b81146120e857600080fd5b50565b6000813590506120fa816120d4565b92915050565b6000806040838503121561211757612116611e95565b5b6000612125858286016120eb565b925050602061213685828601612036565b9150509250929050565b61214981612015565b82525050565b60006020820190506121646000830184612140565b92915050565b60008060006060848603121561218357612182611e95565b5b6000612191868287016120eb565b93505060206121a2868287016120eb565b92505060406121b386828701612036565b9150509250925092565b600080fd5b600080fd5b7f4e487b7100000000000000000000000000000000000000000000000000000000600052604160045260246000fd5b6121ff82611fa9565b810181811067ffffffffffffffff8211171561221e5761221d6121c7565b5b80604052505050565b6000612231611e8b565b905061223d82826121f6565b919050565b600067ffffffffffffffff82111561225d5761225c6121c7565b5b61226682611fa9565b9050602081019050919050565b82818337600083830152505050565b600061229561229084612242565b612227565b9050828152602081018484840111156122b1576122b06121c2565b5b6122bc848285612273565b509392505050565b600082601f8301126122d9576122d86121bd565b5b81356122e9848260208601612282565b91505092915050565b60006020828403121561230857612307611e95565b5b600082013567ffffffffffffffff81111561232657612325611e9a565b5b612332848285016122c4565b91505092915050565b60006020828403121561235157612350611e95565b5b600061235f848285016120eb565b91505092915050565b61237181611f24565b811461237c57600080fd5b50565b60008135905061238e81612368565b92915050565b600080604083850312156123ab576123aa611e95565b5b60006123b9858286016120eb565b92505060206123ca8582860161237f565b9150509250929050565b600067ffffffffffffffff8211156123ef576123ee6121c7565b5b6123f882611fa9565b9050602081019050919050565b6000612418612413846123d4565b612227565b905082815260208101848484011115612434576124336121c2565b5b61243f848285612273565b509392505050565b600082601f83011261245c5761245b6121bd565b5b813561246c848260208601612405565b91505092915050565b6000806000806080858703121561248f5761248e611e95565b5b600061249d878288016120eb565b94505060206124ae878288016120eb565b93505060406124bf87828801612036565b925050606085013567ffffffffffffffff8111156124e0576124df611e9a565b5b6124ec87828801612447565b91505092959194509250565b6000806040838503121561250f5761250e611e95565b5b600061251d858286016120eb565b925050602061252e858286016120eb565b9150509250929050565b7f4e487b7100000000000000000000000000000000000000000000000000000000600052602260045260246000fd5b6000600282049050600182168061257f57607f821691505b6020821081141561259357612592612538565b5b50919050565b7f4552433732313a20617070726f76616c20746f2063757272656e74206f776e6560008201527f7200000000000000000000000000000000000000000000000000000000000000602082015250565b60006125f5602183611f65565b915061260082612599565b604082019050919050565b60006020820190508181036000830152612624816125e8565b9050919050565b7f4552433732313a20617070726f76652063616c6c6572206973206e6f7420746f60008201527f6b656e206f776e6572206e6f7220617070726f76656420666f7220616c6c0000602082015250565b6000612687603e83611f65565b91506126928261262b565b604082019050919050565b600060208201905081810360008301526126b68161267a565b9050919050565b7f4552433732313a2063616c6c6572206973206e6f7420746f6b656e206f776e6560008201527f72206e6f7220617070726f766564000000000000000000000000000000000000602082015250565b6000612719602e83611f65565b9150612724826126bd565b604082019050919050565b600060208201905081810360008301526127488161270c565b9050919050565b7f4552433732313a20696e76616c696420746f6b656e2049440000000000000000600082015250565b6000612785601883611f65565b91506127908261274f565b602082019050919050565b600060208201905081810360008301526127b481612778565b9050919050565b7f4d696e74696e67206973206e6f74206163746976650000000000000000000000600082015250565b60006127f1601583611f65565b91506127fc826127bb565b602082019050919050565b60006020820190508181036000830152612820816127e4565b9050919050565b7f416c6c204e4654732068617665206265656e206d696e74656400000000000000600082015250565b600061285d601983611f65565b915061286882612827565b602082019050919050565b6000602082019050818103600083015261288c81612850565b9050919050565b7f596f75206861766520616c7265616479206d696e74656420616e204e46540000600082015250565b60006128c9601e83611f65565b91506128d482612893565b602082019050919050565b600060208201905081810360008301526128f8816128bc565b9050919050565b7f4552433732313a2061646472657373207a65726f206973206e6f74206120766160008201527f6c6964206f776e65720000000000000000000000000000000000000000000000602082015250565b600061295b602983611f65565b9150612966826128ff565b604082019050919050565b6000602082019050818103600083015261298a8161294e565b9050919050565b600081905092915050565b60006129a782611f5a565b6129b18185612991565b93506129c1818560208601611f76565b80840191505092915050565b60006129d9828561299c565b91506129e5828461299c565b91508190509392505050565b7f4f776e61626c653a206e6577206f776e657220697320746865207a65726f206160008201527f6464726573730000000000000000000000000000000000000000000000000000602082015250565b6000612a4d602683611f65565b9150612a58826129f1565b604082019050919050565b60006020820190508181036000830152612a7c81612a40565b9050919050565b7f4552433732313a207472616e736665722066726f6d20696e636f72726563742060008201527f6f776e6572000000000000000000000000000000000000000000000000000000602082015250565b6000612adf602583611f65565b9150612aea82612a83565b604082019050919050565b60006020820190508181036000830152612b0e81612ad2565b9050919050565b7f4552433732313a207472616e7366657220746f20746865207a65726f2061646460008201527f7265737300000000000000000000000000000000000000000000000000000000602082015250565b6000612b71602483611f65565b9150612b7c82612b15565b604082019050919050565b60006020820190508181036000830152612ba081612b64565b9050919050565b7f4e487b7100000000000000000000000000000000000000000000000000000000600052601160045260246000fd5b6000612be182612015565b9150612bec83612015565b925082821015612bff57612bfe612ba7565b5b828203905092915050565b6000612c1582612015565b9150612c2083612015565b9250827fffffffffffffffffffffffffffffffffffffffffffffffffffffffffffffffff03821115612c5557612c54612ba7565b5b828201905092915050565b7f4f776e61626c653a2063616c6c6572206973206e6f7420746865206f776e6572600082015250565b6000612c96602083611f65565b9150612ca182612c60565b602082019050919050565b60006020820190508181036000830152612cc581612c89565b9050919050565b7f4552433732313a20617070726f766520746f2063616c6c657200000000000000600082015250565b6000612d02601983611f65565b9150612d0d82612ccc565b602082019050919050565b60006020820190508181036000830152612d3181612cf5565b9050919050565b7f4552433732313a207472616e7366657220746f206e6f6e20455243373231526560008201527f63656976657220696d706c656d656e7465720000000000000000000000000000602082015250565b6000612d94603283611f65565b9150612d9f82612d38565b604082019050919050565b60006020820190508181036000830152612dc381612d87565b9050919050565b6000612dd582612015565b91507fffffffffffffffffffffffffffffffffffffffffffffffffffffffffffffffff821415612e0857612e07612ba7565b5b600182019050919050565b7f4e487b7100000000000000000000000000000000000000000000000000000000600052601260045260246000fd5b6000612e4d82612015565b9150612e5883612015565b925082612e6857612e67612e13565b5b828204905092915050565b6000612e7e82612015565b9150612e8983612015565b925082612e9957612e98612e13565b5b828206905092915050565b7f4e487b7100000000000000000000000000000000000000000000000000000000600052603260045260246000fd5b600081519050919050565b600082825260208201905092915050565b6000612efa82612ed3565b612f048185612ede565b9350612f14818560208601611f76565b612f1d81611fa9565b840191505092915050565b6000608082019050612f3d60008301876120aa565b612f4a60208301866120aa565b612f576040830185612140565b8181036060830152612f698184612eef565b905095945050505050565b600081519050612f8381611ecb565b92915050565b600060208284031215612f9f57612f9e611e95565b5b6000612fad84828501612f74565b91505092915050565b7f4552433732313a206d696e7420746f20746865207a65726f2061646472657373600082015250565b6000612fec602083611f65565b9150612ff782612fb6565b602082019050919050565b6000602082019050818103600083015261301b81612fdf565b9050919050565b7f4552433732313a20746f6b656e20616c7265616479206d696e74656400000000600082015250565b6000613058601c83611f65565b915061306382613022565b602082019050919050565b600060208201905081810360008301526130878161304b565b905091905056fea26469706673582212206b965e7eb857a1f933edfa0f3ccfe4b1ca1dc6c1e3fb6dde7f8dffdd5163dd5964736f6c63430008090033697066733a2f2f62616679626569683561796c6d726a613569696c6562776465756869347a6363347665796672347978676d767232726d616e64617465336d7572692f",
  "linkReferences": {},
  "deployedLinkReferences": {}
}