{
  "_format": "hh-sol-artifact-1",
  "contractName": "HdlLogo",
  "sourceName": "contracts/HdlLogo.sol",
  "abi": [
    {
      "inputs": [],
      "stateMutability": "nonpayable",
      "type": "constructor"
    },
    {
      "anonymous": false,
      "inputs": [
        {
          "indexed": true,
          "internalType": "address",
          "name": "owner",
          "type": "address"
        },
        {
          "indexed": true,
          "internalType": "address",
          "name": "approved",
          "type": "address"
        },
        {
          "indexed": true,
          "internalType": "uint256",
          "name": "tokenId",
          "type": "uint256"
        }
      ],
      "name": "Approval",
      "type": "event"
    },
    {
      "anonymous": false,
      "inputs": [
        {
          "indexed": true,
          "internalType": "address",
          "name": "owner",
          "type": "address"
        },
        {
          "indexed": true,
          "internalType": "address",
          "name": "operator",
          "type": "address"
        },
        {
          "indexed": false,
          "internalType": "bool",
          "name": "approved",
          "type": "bool"
        }
      ],
      "name": "ApprovalForAll",
      "type": "event"
    },
    {
      "anonymous": false,
      "inputs": [
        {
          "indexed": true,
          "internalType": "address",
          "name": "previousOwner",
          "type": "address"
        },
        {
          "indexed": true,
          "internalType": "address",
          "name": "newOwner",
          "type": "address"
        }
      ],
      "name": "OwnershipTransferred",
      "type": "event"
    },
    {
      "anonymous": false,
      "inputs": [
        {
          "indexed": true,
          "internalType": "address",
          "name": "from",
          "type": "address"
        },
        {
          "indexed": true,
          "internalType": "address",
          "name": "to",
          "type": "address"
        },
        {
          "indexed": true,
          "internalType": "uint256",
          "name": "tokenId",
          "type": "uint256"
        }
      ],
      "name": "Transfer",
      "type": "event"
    },
    {
      "inputs": [
        {
          "internalType": "address",
          "name": "to",
          "type": "address"
        },
        {
          "internalType": "uint256",
          "name": "tokenId",
          "type": "uint256"
        }
      ],
      "name": "approve",
      "outputs": [],
      "stateMutability": "nonpayable",
      "type": "function"
    },
    {
      "inputs": [
        {
          "internalType": "address",
          "name": "owner",
          "type": "address"
        }
      ],
      "name": "balanceOf",
      "outputs": [
        {
          "internalType": "uint256",
          "name": "",
          "type": "uint256"
        }
      ],
      "stateMutability": "view",
      "type": "function"
    },
    {
      "inputs": [
        {
          "internalType": "uint256",
          "name": "tokenId",
          "type": "uint256"
        }
      ],
      "name": "burn",
      "outputs": [],
      "stateMutability": "nonpayable",
      "type": "function"
    },
    {
      "inputs": [
        {
          "internalType": "address",
          "name": "_address",
          "type": "address"
        }
      ],
      "name": "checkHasMinted",
      "outputs": [
        {
          "internalType": "bool",
          "name": "",
          "type": "bool"
        }
      ],
      "stateMutability": "view",
      "type": "function"
    },
    {
      "inputs": [
        {
          "internalType": "uint256",
          "name": "tokenId",
          "type": "uint256"
        }
      ],
      "name": "getApproved",
      "outputs": [
        {
          "internalType": "address",
          "name": "",
          "type": "address"
        }
      ],
      "stateMutability": "view",
      "type": "function"
    },
    {
      "inputs": [
        {
          "internalType": "address",
          "name": "owner",
          "type": "address"
        },
        {
          "internalType": "address",
          "name": "operator",
          "type": "address"
        }
      ],
      "name": "isApprovedForAll",
      "outputs": [
        {
          "internalType": "bool",
          "name": "",
          "type": "bool"
        }
      ],
      "stateMutability": "view",
      "type": "function"
    },
    {
      "inputs": [],
      "name": "isMintActive",
      "outputs": [
        {
          "internalType": "bool",
          "name": "",
          "type": "bool"
        }
      ],
      "stateMutability": "view",
      "type": "function"
    },
    {
      "inputs": [],
      "name": "maxSupply",
      "outputs": [
        {
          "internalType": "uint256",
          "name": "",
          "type": "uint256"
        }
      ],
      "stateMutability": "view",
      "type": "function"
    },
    {
      "inputs": [],
      "name": "name",
      "outputs": [
        {
          "internalType": "string",
          "name": "",
          "type": "string"
        }
      ],
      "stateMutability": "view",
      "type": "function"
    },
    {
      "inputs": [],
      "name": "owner",
      "outputs": [
        {
          "internalType": "address",
          "name": "",
          "type": "address"
        }
      ],
      "stateMutability": "view",
      "type": "function"
    },
    {
      "inputs": [
        {
          "internalType": "uint256",
          "name": "tokenId",
          "type": "uint256"
        }
      ],
      "name": "ownerOf",
      "outputs": [
        {
          "internalType": "address",
          "name": "",
          "type": "address"
        }
      ],
      "stateMutability": "view",
      "type": "function"
    },
    {
      "inputs": [],
      "name": "renounceOwnership",
      "outputs": [],
      "stateMutability": "nonpayable",
      "type": "function"
    },
    {
      "inputs": [
        {
          "internalType": "address",
          "name": "to",
          "type": "address"
        }
      ],
      "name": "safeMint",
      "outputs": [],
      "stateMutability": "nonpayable",
      "type": "function"
    },
    {
      "inputs": [
        {
          "internalType": "address",
          "name": "from",
          "type": "address"
        },
        {
          "internalType": "address",
          "name": "to",
          "type": "address"
        },
        {
          "internalType": "uint256",
          "name": "tokenId",
          "type": "uint256"
        }
      ],
      "name": "safeTransferFrom",
      "outputs": [],
      "stateMutability": "nonpayable",
      "type": "function"
    },
    {
      "inputs": [
        {
          "internalType": "address",
          "name": "from",
          "type": "address"
        },
        {
          "internalType": "address",
          "name": "to",
          "type": "address"
        },
        {
          "internalType": "uint256",
          "name": "tokenId",
          "type": "uint256"
        },
        {
          "internalType": "bytes",
          "name": "data",
          "type": "bytes"
        }
      ],
      "name": "safeTransferFrom",
      "outputs": [],
      "stateMutability": "nonpayable",
      "type": "function"
    },
    {
      "inputs": [
        {
          "internalType": "address",
          "name": "operator",
          "type": "address"
        },
        {
          "internalType": "bool",
          "name": "approved",
          "type": "bool"
        }
      ],
      "name": "setApprovalForAll",
      "outputs": [],
      "stateMutability": "nonpayable",
      "type": "function"
    },
    {
      "inputs": [
        {
          "internalType": "string",
          "name": "newBaseURI",
          "type": "string"
        }
      ],
      "name": "setBaseURI",
      "outputs": [],
      "stateMutability": "nonpayable",
      "type": "function"
    },
    {
      "inputs": [
        {
          "internalType": "bytes4",
          "name": "interfaceId",
          "type": "bytes4"
        }
      ],
      "name": "supportsInterface",
      "outputs": [
        {
          "internalType": "bool",
          "name": "",
          "type": "bool"
        }
      ],
      "stateMutability": "view",
      "type": "function"
    },
    {
      "inputs": [],
      "name": "symbol",
      "outputs": [
        {
          "internalType": "string",
          "name": "",
          "type": "string"
        }
      ],
      "stateMutability": "view",
      "type": "function"
    },
    {
      "inputs": [],
      "name": "toggleMint",
      "outputs": [],
      "stateMutability": "nonpayable",
      "type": "function"
    },
    {
      "inputs": [
        {
          "internalType": "uint256",
          "name": "tokenId",
          "type": "uint256"
        }
      ],
      "name": "tokenURI",
      "outputs": [
        {
          "internalType": "string",
          "name": "",
          "type": "string"
        }
      ],
      "stateMutability": "view",
      "type": "function"
    },
    {
      "inputs": [
        {
          "internalType": "address",
          "name": "from",
          "type": "address"
        },
        {
          "internalType": "address",
          "name": "to",
          "type": "address"
        },
        {
          "internalType": "uint256",
          "name": "tokenId",
          "type": "uint256"
        }
      ],
      "name": "transferFrom",
      "outputs": [],
      "stateMutability": "nonpayable",
      "type": "function"
    },
    {
      "inputs": [
        {
          "internalType": "address",
          "name": "newOwner",
          "type": "address"
        }
      ],
      "name": "transferOwnership",
      "outputs": [],
      "stateMutability": "nonpayable",
      "type": "function"
    }
  ],
  "bytecode": "0x60806040526113886008556000600960006101000a81548160ff0219169083151502179055506040518060800160405280604381526020016200346960439139600b908051906020019062000056929190620001f9565b503480156200006457600080fd5b506040518060400160405280600781526020017f48646c4c6f676f000000000000000000000000000000000000000000000000008152506040518060400160405280600381526020017f48444c00000000000000000000000000000000000000000000000000000000008152508160009080519060200190620000e9929190620001f9565b50806001908051906020019062000102929190620001f9565b50505062000125620001196200012b60201b60201c565b6200013360201b60201c565b6200030e565b600033905090565b6000600660009054906101000a900473ffffffffffffffffffffffffffffffffffffffff16905081600660006101000a81548173ffffffffffffffffffffffffffffffffffffffff021916908373ffffffffffffffffffffffffffffffffffffffff1602179055508173ffffffffffffffffffffffffffffffffffffffff168173ffffffffffffffffffffffffffffffffffffffff167f8be0079c531659141344cd1fd0a4f28419497f9722a3daafe3b4186f6b6457e060405160405180910390a35050565b8280546200020790620002d8565b90600052602060002090601f0160209004810192826200022b576000855562000277565b82601f106200024657805160ff191683800117855562000277565b8280016001018555821562000277579182015b828111156200027657825182559160200191906001019062000259565b5b5090506200028691906200028a565b5090565b5b80821115620002a55760008160009055506001016200028b565b5090565b7f4e487b7100000000000000000000000000000000000000000000000000000000600052602260045260246000fd5b60006002820490506001821680620002f157607f821691505b60208210811415620003085762000307620002a9565b5b50919050565b61314b806200031e6000396000f3fe608060405234801561001057600080fd5b506004361061014d5760003560e01c806370a08231116100c3578063c87b56dd1161007c578063c87b56dd14610374578063d3dd5fe0146103a4578063d5abeb01146103ae578063d8f27590146103cc578063e985e9c5146103fc578063f2fde38b1461042c5761014d565b806370a08231146102c6578063715018a6146102f65780638da5cb5b1461030057806395d89b411461031e578063a22cb4651461033c578063b88d4fde146103585761014d565b806340d097c31161011557806340d097c31461020857806342842e0e1461022457806342966c681461024057806355f804b31461025c5780635b92ac0d146102785780636352211e146102965761014d565b806301ffc9a71461015257806306fdde0314610182578063081812fc146101a0578063095ea7b3146101d057806323b872dd146101ec575b600080fd5b61016c60048036038101906101679190611f7e565b610448565b6040516101799190611fc6565b60405180910390f35b61018a61052a565b604051610197919061207a565b60405180910390f35b6101ba60048036038101906101b591906120d2565b6105bc565b6040516101c79190612140565b60405180910390f35b6101ea60048036038101906101e59190612187565b610602565b005b610206600480360381019061020191906121c7565b61071a565b005b610222600480360381019061021d919061221a565b61077a565b005b61023e600480360381019061023991906121c7565b6109c6565b005b61025a600480360381019061025591906120d2565b6109e6565b005b6102766004803603810190610271919061237c565b610a42565b005b610280610a64565b60405161028d9190611fc6565b60405180910390f35b6102b060048036038101906102ab91906120d2565b610a77565b6040516102bd9190612140565b60405180910390f35b6102e060048036038101906102db919061221a565b610b29565b6040516102ed91906123d4565b60405180910390f35b6102fe610be1565b005b610308610bf5565b6040516103159190612140565b60405180910390f35b610326610c1f565b604051610333919061207a565b60405180910390f35b6103566004803603810190610351919061241b565b610cb1565b005b610372600480360381019061036d91906124fc565b610cc7565b005b61038e600480360381019061038991906120d2565b610d29565b60405161039b919061207a565b60405180910390f35b6103ac610d91565b005b6103b6610dc5565b6040516103c391906123d4565b60405180910390f35b6103e660048036038101906103e1919061221a565b610dcb565b6040516103f39190611fc6565b60405180910390f35b6104166004803603810190610411919061257f565b610e21565b6040516104239190611fc6565b60405180910390f35b6104466004803603810190610441919061221a565b610eb5565b005b60007f80ac58cd000000000000000000000000000000000000000000000000000000007bffffffffffffffffffffffffffffffffffffffffffffffffffffffff1916827bffffffffffffffffffffffffffffffffffffffffffffffffffffffff1916148061051357507f5b5e139f000000000000000000000000000000000000000000000000000000007bffffffffffffffffffffffffffffffffffffffffffffffffffffffff1916827bffffffffffffffffffffffffffffffffffffffffffffffffffffffff1916145b80610523575061052282610f39565b5b9050919050565b606060008054610539906125ee565b80601f0160208091040260200160405190810160405280929190818152602001828054610565906125ee565b80156105b25780601f10610587576101008083540402835291602001916105b2565b820191906000526020600020905b81548152906001019060200180831161059557829003601f168201915b5050505050905090565b60006105c782610fa3565b6004600083815260200190815260200160002060009054906101000a900473ffffffffffffffffffffffffffffffffffffffff169050919050565b600061060d82610a77565b90508073ffffffffffffffffffffffffffffffffffffffff168373ffffffffffffffffffffffffffffffffffffffff16141561067e576040517f08c379a000000000000000000000000000000000000000000000000000000000815260040161067590612692565b60405180910390fd5b8073ffffffffffffffffffffffffffffffffffffffff1661069d610fee565b73ffffffffffffffffffffffffffffffffffffffff1614806106cc57506106cb816106c6610fee565b610e21565b5b61070b576040517f08c379a000000000000000000000000000000000000000000000000000000000815260040161070290612724565b60405180910390fd5b6107158383610ff6565b505050565b61072b610725610fee565b826110af565b61076a576040517f08c379a0000000000000000000000000000000000000000000000000000000008152600401610761906127b6565b60405180910390fd5b610775838383611144565b505050565b600061078660076113ab565b9050600960009054906101000a900460ff166107d7576040517f08c379a00000000000000000000000000000000000000000000000000000000081526004016107ce90612822565b60405180910390fd5b600854811061081b576040517f08c379a00000000000000000000000000000000000000000000000000000000081526004016108129061288e565b60405180910390fd5b600a60008373ffffffffffffffffffffffffffffffffffffffff1673ffffffffffffffffffffffffffffffffffffffff16815260200190815260200160002060009054906101000a900460ff161580156108bf5750600a60003373ffffffffffffffffffffffffffffffffffffffff1673ffffffffffffffffffffffffffffffffffffffff16815260200190815260200160002060009054906101000a900460ff16155b6108fe576040517f08c379a00000000000000000000000000000000000000000000000000000000081526004016108f5906128fa565b60405180910390fd5b61090860076113b9565b6001600a60003373ffffffffffffffffffffffffffffffffffffffff1673ffffffffffffffffffffffffffffffffffffffff16815260200190815260200160002060006101000a81548160ff0219169083151502179055506001600a60008473ffffffffffffffffffffffffffffffffffffffff1673ffffffffffffffffffffffffffffffffffffffff16815260200190815260200160002060006101000a81548160ff0219169083151502179055506109c282826113cf565b5050565b6109e183838360405180602001604052806000815250610cc7565b505050565b6109f76109f1610fee565b826110af565b610a36576040517f08c379a0000000000000000000000000000000000000000000000000000000008152600401610a2d906127b6565b60405180910390fd5b610a3f816113ed565b50565b610a4a61150a565b80600b9080519060200190610a60929190611e6f565b5050565b600960009054906101000a900460ff1681565b6000806002600084815260200190815260200160002060009054906101000a900473ffffffffffffffffffffffffffffffffffffffff169050600073ffffffffffffffffffffffffffffffffffffffff168173ffffffffffffffffffffffffffffffffffffffff161415610b20576040517f08c379a0000000000000000000000000000000000000000000000000000000008152600401610b1790612966565b60405180910390fd5b80915050919050565b60008073ffffffffffffffffffffffffffffffffffffffff168273ffffffffffffffffffffffffffffffffffffffff161415610b9a576040517f08c379a0000000000000000000000000000000000000000000000000000000008152600401610b91906129f8565b60405180910390fd5b600360008373ffffffffffffffffffffffffffffffffffffffff1673ffffffffffffffffffffffffffffffffffffffff168152602001908152602001600020549050919050565b610be961150a565b610bf36000611588565b565b6000600660009054906101000a900473ffffffffffffffffffffffffffffffffffffffff16905090565b606060018054610c2e906125ee565b80601f0160208091040260200160405190810160405280929190818152602001828054610c5a906125ee565b8015610ca75780601f10610c7c57610100808354040283529160200191610ca7565b820191906000526020600020905b815481529060010190602001808311610c8a57829003601f168201915b5050505050905090565b610cc3610cbc610fee565b838361164e565b5050565b610cd8610cd2610fee565b836110af565b610d17576040517f08c379a0000000000000000000000000000000000000000000000000000000008152600401610d0e906127b6565b60405180910390fd5b610d23848484846117bb565b50505050565b6060610d3482610fa3565b6000610d3e611817565b90506000815111610d5e5760405180602001604052806000815250610d89565b80610d68846118a9565b604051602001610d79929190612a54565b6040516020818303038152906040525b915050919050565b610d9961150a565b600960009054906101000a900460ff1615600960006101000a81548160ff021916908315150217905550565b60085481565b6000600a60008373ffffffffffffffffffffffffffffffffffffffff1673ffffffffffffffffffffffffffffffffffffffff16815260200190815260200160002060009054906101000a900460ff169050919050565b6000600560008473ffffffffffffffffffffffffffffffffffffffff1673ffffffffffffffffffffffffffffffffffffffff16815260200190815260200160002060008373ffffffffffffffffffffffffffffffffffffffff1673ffffffffffffffffffffffffffffffffffffffff16815260200190815260200160002060009054906101000a900460ff16905092915050565b610ebd61150a565b600073ffffffffffffffffffffffffffffffffffffffff168173ffffffffffffffffffffffffffffffffffffffff161415610f2d576040517f08c379a0000000000000000000000000000000000000000000000000000000008152600401610f2490612aea565b60405180910390fd5b610f3681611588565b50565b60007f01ffc9a7000000000000000000000000000000000000000000000000000000007bffffffffffffffffffffffffffffffffffffffffffffffffffffffff1916827bffffffffffffffffffffffffffffffffffffffffffffffffffffffff1916149050919050565b610fac81611a0a565b610feb576040517f08c379a0000000000000000000000000000000000000000000000000000000008152600401610fe290612966565b60405180910390fd5b50565b600033905090565b816004600083815260200190815260200160002060006101000a81548173ffffffffffffffffffffffffffffffffffffffff021916908373ffffffffffffffffffffffffffffffffffffffff160217905550808273ffffffffffffffffffffffffffffffffffffffff1661106983610a77565b73ffffffffffffffffffffffffffffffffffffffff167f8c5be1e5ebec7d5bd14f71427d1e84f3dd0314c0f7b2291e5b200ac8c7c3b92560405160405180910390a45050565b6000806110bb83610a77565b90508073ffffffffffffffffffffffffffffffffffffffff168473ffffffffffffffffffffffffffffffffffffffff1614806110fd57506110fc8185610e21565b5b8061113b57508373ffffffffffffffffffffffffffffffffffffffff16611123846105bc565b73ffffffffffffffffffffffffffffffffffffffff16145b91505092915050565b8273ffffffffffffffffffffffffffffffffffffffff1661116482610a77565b73ffffffffffffffffffffffffffffffffffffffff16146111ba576040517f08c379a00000000000000000000000000000000000000000000000000000000081526004016111b190612b7c565b60405180910390fd5b600073ffffffffffffffffffffffffffffffffffffffff168273ffffffffffffffffffffffffffffffffffffffff16141561122a576040517f08c379a000000000000000000000000000000000000000000000000000000000815260040161122190612c0e565b60405180910390fd5b611235838383611a76565b611240600082610ff6565b6001600360008573ffffffffffffffffffffffffffffffffffffffff1673ffffffffffffffffffffffffffffffffffffffff16815260200190815260200160002060008282546112909190612c5d565b925050819055506001600360008473ffffffffffffffffffffffffffffffffffffffff1673ffffffffffffffffffffffffffffffffffffffff16815260200190815260200160002060008282546112e79190612c91565b92505081905550816002600083815260200190815260200160002060006101000a81548173ffffffffffffffffffffffffffffffffffffffff021916908373ffffffffffffffffffffffffffffffffffffffff160217905550808273ffffffffffffffffffffffffffffffffffffffff168473ffffffffffffffffffffffffffffffffffffffff167fddf252ad1be2c89b69c2b068fc378daa952ba7f163c4a11628f55a4df523b3ef60405160405180910390a46113a6838383611a7b565b505050565b600081600001549050919050565b6001816000016000828254019250508190555050565b6113e9828260405180602001604052806000815250611a80565b5050565b60006113f882610a77565b905061140681600084611a76565b611411600083610ff6565b6001600360008373ffffffffffffffffffffffffffffffffffffffff1673ffffffffffffffffffffffffffffffffffffffff16815260200190815260200160002060008282546114619190612c5d565b925050819055506002600083815260200190815260200160002060006101000a81549073ffffffffffffffffffffffffffffffffffffffff021916905581600073ffffffffffffffffffffffffffffffffffffffff168273ffffffffffffffffffffffffffffffffffffffff167fddf252ad1be2c89b69c2b068fc378daa952ba7f163c4a11628f55a4df523b3ef60405160405180910390a461150681600084611a7b565b5050565b611512610fee565b73ffffffffffffffffffffffffffffffffffffffff16611530610bf5565b73ffffffffffffffffffffffffffffffffffffffff1614611586576040517f08c379a000000000000000000000000000000000000000000000000000000000815260040161157d90612d33565b60405180910390fd5b565b6000600660009054906101000a900473ffffffffffffffffffffffffffffffffffffffff16905081600660006101000a81548173ffffffffffffffffffffffffffffffffffffffff021916908373ffffffffffffffffffffffffffffffffffffffff1602179055508173ffffffffffffffffffffffffffffffffffffffff168173ffffffffffffffffffffffffffffffffffffffff167f8be0079c531659141344cd1fd0a4f28419497f9722a3daafe3b4186f6b6457e060405160405180910390a35050565b8173ffffffffffffffffffffffffffffffffffffffff168373ffffffffffffffffffffffffffffffffffffffff1614156116bd576040517f08c379a00000000000000000000000000000000000000000000000000000000081526004016116b490612d9f565b60405180910390fd5b80600560008573ffffffffffffffffffffffffffffffffffffffff1673ffffffffffffffffffffffffffffffffffffffff16815260200190815260200160002060008473ffffffffffffffffffffffffffffffffffffffff1673ffffffffffffffffffffffffffffffffffffffff16815260200190815260200160002060006101000a81548160ff0219169083151502179055508173ffffffffffffffffffffffffffffffffffffffff168373ffffffffffffffffffffffffffffffffffffffff167f17307eab39ab6107e8899845ad3d59bd9653f200f220920489ca2b5937696c31836040516117ae9190611fc6565b60405180910390a3505050565b6117c6848484611144565b6117d284848484611adb565b611811576040517f08c379a000000000000000000000000000000000000000000000000000000000815260040161180890612e31565b60405180910390fd5b50505050565b6060600b8054611826906125ee565b80601f0160208091040260200160405190810160405280929190818152602001828054611852906125ee565b801561189f5780601f106118745761010080835404028352916020019161189f565b820191906000526020600020905b81548152906001019060200180831161188257829003601f168201915b5050505050905090565b606060008214156118f1576040518060400160405280600181526020017f30000000000000000000000000000000000000000000000000000000000000008152509050611a05565b600082905060005b6000821461192357808061190c90612e51565b915050600a8261191c9190612ec9565b91506118f9565b60008167ffffffffffffffff81111561193f5761193e612251565b5b6040519080825280601f01601f1916602001820160405280156119715781602001600182028036833780820191505090505b5090505b600085146119fe5760018261198a9190612c5d565b9150600a856119999190612efa565b60306119a59190612c91565b60f81b8183815181106119bb576119ba612f2b565b5b60200101907effffffffffffffffffffffffffffffffffffffffffffffffffffffffffffff1916908160001a905350600a856119f79190612ec9565b9450611975565b8093505050505b919050565b60008073ffffffffffffffffffffffffffffffffffffffff166002600084815260200190815260200160002060009054906101000a900473ffffffffffffffffffffffffffffffffffffffff1673ffffffffffffffffffffffffffffffffffffffff1614159050919050565b505050565b505050565b611a8a8383611c72565b611a976000848484611adb565b611ad6576040517f08c379a0000000000000000000000000000000000000000000000000000000008152600401611acd90612e31565b60405180910390fd5b505050565b6000611afc8473ffffffffffffffffffffffffffffffffffffffff16611e4c565b15611c65578373ffffffffffffffffffffffffffffffffffffffff1663150b7a02611b25610fee565b8786866040518563ffffffff1660e01b8152600401611b479493929190612faf565b602060405180830381600087803b158015611b6157600080fd5b505af1925050508015611b9257506040513d601f19601f82011682018060405250810190611b8f9190613010565b60015b611c15573d8060008114611bc2576040519150601f19603f3d011682016040523d82523d6000602084013e611bc7565b606091505b50600081511415611c0d576040517f08c379a0000000000000000000000000000000000000000000000000000000008152600401611c0490612e31565b60405180910390fd5b805181602001fd5b63150b7a0260e01b7bffffffffffffffffffffffffffffffffffffffffffffffffffffffff1916817bffffffffffffffffffffffffffffffffffffffffffffffffffffffff191614915050611c6a565b600190505b949350505050565b600073ffffffffffffffffffffffffffffffffffffffff168273ffffffffffffffffffffffffffffffffffffffff161415611ce2576040517f08c379a0000000000000000000000000000000000000000000000000000000008152600401611cd990613089565b60405180910390fd5b611ceb81611a0a565b15611d2b576040517f08c379a0000000000000000000000000000000000000000000000000000000008152600401611d22906130f5565b60405180910390fd5b611d3760008383611a76565b6001600360008473ffffffffffffffffffffffffffffffffffffffff1673ffffffffffffffffffffffffffffffffffffffff1681526020019081526020016000206000828254611d879190612c91565b92505081905550816002600083815260200190815260200160002060006101000a81548173ffffffffffffffffffffffffffffffffffffffff021916908373ffffffffffffffffffffffffffffffffffffffff160217905550808273ffffffffffffffffffffffffffffffffffffffff16600073ffffffffffffffffffffffffffffffffffffffff167fddf252ad1be2c89b69c2b068fc378daa952ba7f163c4a11628f55a4df523b3ef60405160405180910390a4611e4860008383611a7b565b5050565b6000808273ffffffffffffffffffffffffffffffffffffffff163b119050919050565b828054611e7b906125ee565b90600052602060002090601f016020900481019282611e9d5760008555611ee4565b82601f10611eb657805160ff1916838001178555611ee4565b82800160010185558215611ee4579182015b82811115611ee3578251825591602001919060010190611ec8565b5b509050611ef19190611ef5565b5090565b5b80821115611f0e576000816000905550600101611ef6565b5090565b6000604051905090565b600080fd5b600080fd5b60007fffffffff0000000000000000000000000000000000000000000000000000000082169050919050565b611f5b81611f26565b8114611f6657600080fd5b50565b600081359050611f7881611f52565b92915050565b600060208284031215611f9457611f93611f1c565b5b6000611fa284828501611f69565b91505092915050565b60008115159050919050565b611fc081611fab565b82525050565b6000602082019050611fdb6000830184611fb7565b92915050565b600081519050919050565b600082825260208201905092915050565b60005b8381101561201b578082015181840152602081019050612000565b8381111561202a576000848401525b50505050565b6000601f19601f8301169050919050565b600061204c82611fe1565b6120568185611fec565b9350612066818560208601611ffd565b61206f81612030565b840191505092915050565b600060208201905081810360008301526120948184612041565b905092915050565b6000819050919050565b6120af8161209c565b81146120ba57600080fd5b50565b6000813590506120cc816120a6565b92915050565b6000602082840312156120e8576120e7611f1c565b5b60006120f6848285016120bd565b91505092915050565b600073ffffffffffffffffffffffffffffffffffffffff82169050919050565b600061212a826120ff565b9050919050565b61213a8161211f565b82525050565b60006020820190506121556000830184612131565b92915050565b6121648161211f565b811461216f57600080fd5b50565b6000813590506121818161215b565b92915050565b6000806040838503121561219e5761219d611f1c565b5b60006121ac85828601612172565b92505060206121bd858286016120bd565b9150509250929050565b6000806000606084860312156121e0576121df611f1c565b5b60006121ee86828701612172565b93505060206121ff86828701612172565b9250506040612210868287016120bd565b9150509250925092565b6000602082840312156122305761222f611f1c565b5b600061223e84828501612172565b91505092915050565b600080fd5b600080fd5b7f4e487b7100000000000000000000000000000000000000000000000000000000600052604160045260246000fd5b61228982612030565b810181811067ffffffffffffffff821117156122a8576122a7612251565b5b80604052505050565b60006122bb611f12565b90506122c78282612280565b919050565b600067ffffffffffffffff8211156122e7576122e6612251565b5b6122f082612030565b9050602081019050919050565b82818337600083830152505050565b600061231f61231a846122cc565b6122b1565b90508281526020810184848401111561233b5761233a61224c565b5b6123468482856122fd565b509392505050565b600082601f83011261236357612362612247565b5b813561237384826020860161230c565b91505092915050565b60006020828403121561239257612391611f1c565b5b600082013567ffffffffffffffff8111156123b0576123af611f21565b5b6123bc8482850161234e565b91505092915050565b6123ce8161209c565b82525050565b60006020820190506123e960008301846123c5565b92915050565b6123f881611fab565b811461240357600080fd5b50565b600081359050612415816123ef565b92915050565b6000806040838503121561243257612431611f1c565b5b600061244085828601612172565b925050602061245185828601612406565b9150509250929050565b600067ffffffffffffffff82111561247657612475612251565b5b61247f82612030565b9050602081019050919050565b600061249f61249a8461245b565b6122b1565b9050828152602081018484840111156124bb576124ba61224c565b5b6124c68482856122fd565b509392505050565b600082601f8301126124e3576124e2612247565b5b81356124f384826020860161248c565b91505092915050565b6000806000806080858703121561251657612515611f1c565b5b600061252487828801612172565b945050602061253587828801612172565b9350506040612546878288016120bd565b925050606085013567ffffffffffffffff81111561256757612566611f21565b5b612573878288016124ce565b91505092959194509250565b6000806040838503121561259657612595611f1c565b5b60006125a485828601612172565b92505060206125b585828601612172565b9150509250929050565b7f4e487b7100000000000000000000000000000000000000000000000000000000600052602260045260246000fd5b6000600282049050600182168061260657607f821691505b6020821081141561261a576126196125bf565b5b50919050565b7f4552433732313a20617070726f76616c20746f2063757272656e74206f776e6560008201527f7200000000000000000000000000000000000000000000000000000000000000602082015250565b600061267c602183611fec565b915061268782612620565b604082019050919050565b600060208201905081810360008301526126ab8161266f565b9050919050565b7f4552433732313a20617070726f76652063616c6c6572206973206e6f7420746f60008201527f6b656e206f776e6572206e6f7220617070726f76656420666f7220616c6c0000602082015250565b600061270e603e83611fec565b9150612719826126b2565b604082019050919050565b6000602082019050818103600083015261273d81612701565b9050919050565b7f4552433732313a2063616c6c6572206973206e6f7420746f6b656e206f776e6560008201527f72206e6f7220617070726f766564000000000000000000000000000000000000602082015250565b60006127a0602e83611fec565b91506127ab82612744565b604082019050919050565b600060208201905081810360008301526127cf81612793565b9050919050565b7f4d696e74696e67206973206e6f74206163746976650000000000000000000000600082015250565b600061280c601583611fec565b9150612817826127d6565b602082019050919050565b6000602082019050818103600083015261283b816127ff565b9050919050565b7f416c6c204e4654732068617665206265656e206d696e74656400000000000000600082015250565b6000612878601983611fec565b915061288382612842565b602082019050919050565b600060208201905081810360008301526128a78161286b565b9050919050565b7f596f75206861766520616c7265616479206d696e74656420616e204e46540000600082015250565b60006128e4601e83611fec565b91506128ef826128ae565b602082019050919050565b60006020820190508181036000830152612913816128d7565b9050919050565b7f4552433732313a20696e76616c696420746f6b656e2049440000000000000000600082015250565b6000612950601883611fec565b915061295b8261291a565b602082019050919050565b6000602082019050818103600083015261297f81612943565b9050919050565b7f4552433732313a2061646472657373207a65726f206973206e6f74206120766160008201527f6c6964206f776e65720000000000000000000000000000000000000000000000602082015250565b60006129e2602983611fec565b91506129ed82612986565b604082019050919050565b60006020820190508181036000830152612a11816129d5565b9050919050565b600081905092915050565b6000612a2e82611fe1565b612a388185612a18565b9350612a48818560208601611ffd565b80840191505092915050565b6000612a608285612a23565b9150612a6c8284612a23565b91508190509392505050565b7f4f776e61626c653a206e6577206f776e657220697320746865207a65726f206160008201527f6464726573730000000000000000000000000000000000000000000000000000602082015250565b6000612ad4602683611fec565b9150612adf82612a78565b604082019050919050565b60006020820190508181036000830152612b0381612ac7565b9050919050565b7f4552433732313a207472616e736665722066726f6d20696e636f72726563742060008201527f6f776e6572000000000000000000000000000000000000000000000000000000602082015250565b6000612b66602583611fec565b9150612b7182612b0a565b604082019050919050565b60006020820190508181036000830152612b9581612b59565b9050919050565b7f4552433732313a207472616e7366657220746f20746865207a65726f2061646460008201527f7265737300000000000000000000000000000000000000000000000000000000602082015250565b6000612bf8602483611fec565b9150612c0382612b9c565b604082019050919050565b60006020820190508181036000830152612c2781612beb565b9050919050565b7f4e487b7100000000000000000000000000000000000000000000000000000000600052601160045260246000fd5b6000612c688261209c565b9150612c738361209c565b925082821015612c8657612c85612c2e565b5b828203905092915050565b6000612c9c8261209c565b9150612ca78361209c565b9250827fffffffffffffffffffffffffffffffffffffffffffffffffffffffffffffffff03821115612cdc57612cdb612c2e565b5b828201905092915050565b7f4f776e61626c653a2063616c6c6572206973206e6f7420746865206f776e6572600082015250565b6000612d1d602083611fec565b9150612d2882612ce7565b602082019050919050565b60006020820190508181036000830152612d4c81612d10565b9050919050565b7f4552433732313a20617070726f766520746f2063616c6c657200000000000000600082015250565b6000612d89601983611fec565b9150612d9482612d53565b602082019050919050565b60006020820190508181036000830152612db881612d7c565b9050919050565b7f4552433732313a207472616e7366657220746f206e6f6e20455243373231526560008201527f63656976657220696d706c656d656e7465720000000000000000000000000000602082015250565b6000612e1b603283611fec565b9150612e2682612dbf565b604082019050919050565b60006020820190508181036000830152612e4a81612e0e565b9050919050565b6000612e5c8261209c565b91507fffffffffffffffffffffffffffffffffffffffffffffffffffffffffffffffff821415612e8f57612e8e612c2e565b5b600182019050919050565b7f4e487b7100000000000000000000000000000000000000000000000000000000600052601260045260246000fd5b6000612ed48261209c565b9150612edf8361209c565b925082612eef57612eee612e9a565b5b828204905092915050565b6000612f058261209c565b9150612f108361209c565b925082612f2057612f1f612e9a565b5b828206905092915050565b7f4e487b7100000000000000000000000000000000000000000000000000000000600052603260045260246000fd5b600081519050919050565b600082825260208201905092915050565b6000612f8182612f5a565b612f8b8185612f65565b9350612f9b818560208601611ffd565b612fa481612030565b840191505092915050565b6000608082019050612fc46000830187612131565b612fd16020830186612131565b612fde60408301856123c5565b8181036060830152612ff08184612f76565b905095945050505050565b60008151905061300a81611f52565b92915050565b60006020828403121561302657613025611f1c565b5b600061303484828501612ffb565b91505092915050565b7f4552433732313a206d696e7420746f20746865207a65726f2061646472657373600082015250565b6000613073602083611fec565b915061307e8261303d565b602082019050919050565b600060208201905081810360008301526130a281613066565b9050919050565b7f4552433732313a20746f6b656e20616c7265616479206d696e74656400000000600082015250565b60006130df601c83611fec565b91506130ea826130a9565b602082019050919050565b6000602082019050818103600083015261310e816130d2565b905091905056fea26469706673582212209dc50cbeb7d8cf89ad446063f4842bef3f864aedab784246952db709034b135d64736f6c63430008090033697066733a2f2f62616679626569656772677735773533687a7768326432766e66707a67357a78356275783633746d67697a6e70656261617234686e646e776f67712f",
  "linkReferences": {},
  "deployedLinkReferences": {}
}